S00C00006D61696E2E7372656373
S11300000C942A000C9447000C9447000C9447006D
S11300100C9447000C9447000C9447000C94470040
S11300200C9447000C9447000C9447000C94470030
S11300300C9447000C9447000C9447000C94470020
S11300400C9447000C9447000C9447000C94470010
S11300500C94470011241FBECFE5D4E0DEBFCDBF12
S113006010E0A0E6B0E0E2EAF5E002C005900D92EF
S1130070AE3AB107D9F720E0AEEAB0E001C01D9274
S1130080AD3BB207E1F70E9412020C94CF020C942C
S1130090000080FF02C0949A01C0949881FF02C0BE
S11300A0959A01C0959882FF02C0969A01C09698CD
S11300B083FF02C0979A089597980895CF93C82F05
S11300C0939A82958F700E9449009398939A8C2FEB
S11300D00E944900939885E88A95F1F70000CF9132
S11300E0089592980E945E000895929A0E945E007C
S11300F00895CF93DF93EC018881882331F0219612
S11301000E94750089918111FBCFDF91CF910895F1
S113011081E00E9471008FE99FE00197F1F700C030
S11301200000089582E00E9471008FE99FE001972A
S1130130F1F700C000000895CF938C9A8D9A8E9A9F
S11301408F9A8B9A8A9A8FE295E70197F1F700C00C
S1130150000092989398C3E0939A83E00E94490028
S113016093988FE097E20197F1F700C00000C15027
S113017099F7939A82E00E94490093988FEC97E054
S11301800197F1F700C0000088E20E94710088E046
S11301900E94710081E00E9471008FE99FE0019745
S11301A0F1F700C0000086E00E9471008CE00E941C
S11301B07100CF9108959093B4008093B30070932D
S11301C0B2006093B1005093B0004093AF002FE0B1
S11301D0FC012083E091B100F091B2008FEF8083A5
S11301E00895CF93DF9360E070E0C1E0D0E0E09148
S11301F0B100F091B2008081DE01062E02C0AA0F88
S1130200BB1F0A94E2F79A2F909589238083E0918B
S1130210AF00F091B000808184FF0FC0CE01408117
S11302209C012C5F3F4F50E0022E02C0559547952C
S11302300A94E2F740FD2FC004C024E030E080E0DF
S113024090E043E050E0FA01E81BF90B461B570B22
S1130250EE0FFF1FEE0FFF1FE40FF51FEE59FF4FC8
S11302608081EFE3FCE93197F1F700C00000E091F1
S1130270AF00F091B00041E050E0BA0102C0660F57
S1130280771F2A95E2F79B01408150E042235323D4
S1130290452BD1F313C001968430910509F0BFCFEB
S11302A0E091B100F091B2008081A82BA0836F5F30
S11302B07F4F6430710509F09ACF80E0DF91CF91D0
S11302C0089598B321E030E002C0220F331F8A95CD
S11302D0E2F72095922398BB089548B321E030E0DB
S11302E0B90102C0660F771F8A95E2F7CB01842B10
S11302F088BB0895FC0130812091B90032130EC0EF
S1130300DC011196EAEBF0E08DEB90E03D91219158
S1130310321307C0E817F907C9F706C080E090E078
S1130320089580E090E0089581E090E008951092AF
S1130330B9001092BA001092BB001092BC00109247
S1130340AE00089582E390E0E5EBF0E0C09A2081EE
S113035031812039314039F4AFE8B1E01197F1F738
S113036000C0000006C0AFECB7E01197F1F700C081
S11303700000C098208131812039314039F4AFEA3E
S1130380BAE91197F1F700C0000006C0AFE6B4E97E
S11303901197F1F700C0000001970097B9F608958E
S11303A080E991E09093B6008093B5000E94A20189
S11303B01092B700089580E293E09093B600809382
S11303C0B5000E94A20181E08093B7001092B800AA
S11303D082E00E94610181E00E946D01089521E0A4
S11303E0FC0120830E9488000E94920082E790E032
S11303F00E94790081E00E94610182E00E946D0107
S11304000895FC0110820E9488000E9492008BE7EC
S113041090E00E94790081E00E946D0182E00E94D8
S1130420610108958FE087BB88EF88BB43E350E008
S113043065E370E084E390E00E94DB000E949C008E
S11304400E94920082E790E00E94790088EE93E097
S11304509093B6008093B5001092B70088EB90E0BB
S11304600E9401020E94DB010E949701B3991EC001
S11304708091B800811107C00E94D00188EB90E000
S11304800E94EF0108C0813031F40E94DB0188EB47
S113049090E00E9401022FEF81EE94E02150804011
S11304A09040E1F700C00000B39BFECF0E94F10032
S11304B08823E1F2843428F48134C0F68A32B1F21C
S11304C058C0843409F055C08091B800811147C0E8
S11304D080916000909161000E947A01892B39F02B
S11304E00E94D00188EB90E00E94EF0135C081E8C2
S11304F090E00E947A01892BB1F00E94D00188EB30
S113050090E00E94EF010E9488000E94920086E819
S113051090E00E94790080EC0E94710082E990E0F2
S11305200E94790019C00E9488000E9492008AE902
S113053090E00E9479002FEF8DE399E421508040F0
S11305409040E1F700C000000E9488000E949200E1
S11305508BE790E00E9479000E94970187CF813059
S113056009F084CF0E94DB0188EB90E00E94010235
S11305707DCF9091B800911179CFE091AE00E43035
S113058008F074CF91E09E0F9093AE00F0E0E75432
S1130590FF4F808386EA90E00E94790067CFF89449
S10505A0FFCF87
S11305A2A8003132334134353642373839432A30A0
S11305B2234457454C434F4D45210050494E3A2060
S11305C20032353830004B6F6368616D20436965D2
S11305D2210044414741203C330057524F4E4720AB
S11105E2434F444521002A00313233340000D7
S9030000FC
