:100000000C942A000C9447000C9447000C94470071
:100010000C9447000C9447000C9447000C94470044
:100020000C9447000C9447000C9447000C94470034
:100030000C9447000C9447000C9447000C94470024
:100040000C9447000C9447000C9447000C94470014
:100050000C94470011241FBECFE5D4E0DEBFCDBF16
:1000600010E0A0E6B0E0EEECF5E002C005900D92E5
:10007000A23DB107D9F720E0A2EDB0E001C01D928A
:10008000A13EB207E1F70E9412020C94E5020C9423
:10009000000080FF02C0949A01C0949881FF02C0C2
:1000A000959A01C0959882FF02C0969A01C09698D1
:1000B00083FF02C0979A089597980895CF93C82F09
:1000C000939A82958F700E9449009398939A8C2FEF
:1000D0000E944900939885E88A95F1F70000CF9136
:1000E000089592980E945E000895929A0E945E0080
:1000F0000895CF93DF93EC018881882331F0219616
:100100000E94750089918111FBCFDF91CF910895F5
:1001100081E00E9471008FE99FE00197F1F700C034
:100120000000089582E00E9471008FE99FE001972E
:10013000F1F700C000000895CF938C9A8D9A8E9AA3
:100140008F9A8B9A8A9A8FE295E70197F1F700C010
:10015000000092989398C3E0939A83E00E9449002C
:1001600093988FE097E20197F1F700C00000C1502B
:1001700099F7939A82E00E94490093988FEC97E058
:100180000197F1F700C0000088E20E94710088E04A
:100190000E94710081E00E9471008FE99FE0019749
:1001A000F1F700C0000086E00E9471008CE00E9420
:1001B0007100CF9108959093D8008093D7007093E9
:1001C000D6006093D5005093D4004093D3002FE025
:1001D000FC012083E091D500F091D6008FEF808361
:1001E0000895CF93DF9360E070E0C1E0D0E0E0914C
:1001F000D500F091D6008081DE01062E02C0AA0F44
:10020000BB1F0A94E2F79A2F909589238083E0918F
:10021000D300F091D400808184FF0FC0CE014081D3
:100220009C012C5F3F4F50E0022E02C05595479530
:100230000A94E2F740FD2FC004C024E030E080E0E3
:1002400090E043E050E0FA01E81BF90B461B570B26
:10025000EE0FFF1FEE0FFF1FE40FF51FEE59FF4FCC
:100260008081EFE3FCE93197F1F700C00000E091F5
:10027000D300F091D40041E050E0BA0102C0660F13
:10028000771F2A95E2F79B01408150E042235323D8
:10029000452BD1F313C001968430910509F0BFCFEF
:1002A000E091D500F091D6008081A82BA0836F5FEC
:1002B0007F4F6430710509F09ACF80E0DF91CF91D4
:1002C000089598B321E030E002C0220F331F8A95D1
:1002D000E2F72095922398BB089548B321E030E0DF
:1002E000B90102C0660F771F8A95E2F7CB01842B14
:1002F00088BB0895FC0130812091DD0032130EC0CF
:10030000DC011196EEEDF0E081EE90E03D9121915F
:10031000321307C0E817F907C9F706C080E090E07C
:10032000089580E090E0089581E090E008951092B3
:10033000DD001092DE001092DF001092E0001092BB
:10034000D200089582E390E0E9EDF0E0C09A2081C8
:1003500031812039314039F4AFE8B1E01197F1F73C
:1003600000C0000006C0AFECB7E01197F1F700C085
:100370000000C098208131812039314039F4AFEA42
:10038000BAE91197F1F700C0000006C0AFE6B4E982
:100390001197F1F700C0000001970097B9F6089592
:1003A00080E991E09093DA008093D9000E94A20145
:1003B0001092DB00089580E293E09093DA0080933E
:1003C000D9000E94A20181E08093DB001092DC0042
:1003D00082E00E94610181E00E946D01089521E0A8
:1003E000FC0120830E9488000E94920082E790E036
:1003F0000E94790081E00E94610182E00E946D010B
:100400000895FC0110820E9488000E9492008BE7F0
:1004100090E00E94790081E00E946D0182E00E94DC
:10042000610108958FE087BB88EF88BB43E350E00C
:1004300065E370E084E390E00E94DB000E949C0092
:100440000E94920082E790E00E94790088EE93E09B
:100450009093DA008093D9001092DB008CED90E04D
:100460000E9401020E94DB010E949701B3991EC005
:100470008091DC00811107C00E94D0018CED90E0DA
:100480000E94EF0108C0813031F40E94DB018CED45
:1004900090E00E9401022FEF81EE94E02150804015
:1004A0009040E1F700C00000B39BFECF0E94F10036
:1004B0008823E1F2843428F48134C0F68A32B1F220
:1004C0006EC0843409F06BC08091DC0081115DC086
:1004D00080916000909161000E947A01892B39F02F
:1004E0000E94D0018CED90E00E94EF014BC081E8AA
:1004F00090E00E947A01892BB1F00E94D0018CED2E
:1005000090E00E94EF010E9488000E94920086E81D
:1005100090E00E94790080EC0E94710082E990E0F6
:100520000E9479002FC08AE990E00E947A01892B0D
:1005300081F00E9488000E9492008FE990E00E9462
:10054000790080EC0E9471008FEA90E00E947900AF
:1005500019C00E9488000E9492008FEB90E00E94D8
:1005600079002FEF8DE399E4215080409040E1F72E
:1005700000C000000E9488000E9492008BE790E07B
:100580000E9479000E94970171CF813009F06ECFEF
:100590000E94DB018CED90E00E94010267CF9091F8
:1005A000DC00911163CFE091D200E43008F05ECF1F
:1005B00091E09E0F9093D200F0E0E352FF4F8083D2
:0E05C0008BEC90E00E94790051CFF894FFCFB1
:1005CE00CD003132334134353642373839432A3053
:1005DE00234457454C434F4D45210050494E3A2038
:1005EE000032353830004B6F6368616D20436965AA
:1005FE00210044414741203C330031393937005006
:10060E006564616C206F6420726F77657275005A35
:10061E00616B617A207773746570752121210057A3
:10062E00524F4E4720434F444521002A003132336A
:02063E00340086
:00000001FF
