:1000000012C02CC02BC02AC029C028C027C026C0BF
:1000100025C024C023C022C021C020C01FC01EC0D4
:100020001DC01CC01BC011241FBECFE5D4E0DEBF25
:10003000CDBF10E0A0E6B0E0E4E7F4E002C0059038
:100040000D92A238B107D9F720E0A2E8B0E001C0D4
:100050001D92A139B207E1F7B4D10AC2D1CF80FF16
:1000600002C0AA9A01C0AA9881FF02C0AB9A01C03F
:10007000AB9882FF02C0AC9A01C0AC9883FF02C06B
:10008000AD9A0895AD980895CF93C82FA99A8295F7
:100090008F70E5DFA998A99A8C2FE1DFA99885E8F0
:1000A0008A95F1F70000CF910895A898EDDF0895A3
:1000B000A89AEADF0895CF93DF93EC018881882323
:1000C00029F02196F5DF89918111FCCFDF91CF9145
:1000D0000895CF93A29AA39AA49AA59AA19AA09AB6
:1000E0008FE295E70197F1F700C00000A898A99862
:1000F000C3E0A99A83E0B3DFA9988FE097E2019764
:10010000F1F700C00000C150A1F7A99A82E0A7DF73
:10011000A9988FEC97E00197F1F700C0000088E202
:10012000C4DF88E0C2DF81E0C0DF8FE99FE0019794
:10013000F1F700C0000086E0B8DF8CE0B6DFCF91B9
:100140000895909388008093870070938600609351
:10015000850050938400409383002FE0FC012083AE
:10016000E0918500F09186008FEF80830895CF9312
:10017000DF9360E070E0C1E0D0E0E0918500F091B5
:1001800086008081DE01062E02C0AA0FBB1F0A94E2
:10019000E2F79A2F909589238083E0918300F09174
:1001A0008400808184FF0FC0CE0140819C012C5FC0
:1001B0003F4F50E0022E02C0559547950A94E2F752
:1001C00040FD2FC004C024E030E080E090E043E038
:1001D00050E0FA01E81BF90B461B570BEE0FFF1F0F
:1001E000EE0FFF1FE40FF51FEE59FF4F8081EFE385
:1001F000FCE93197F1F700C00000E0918300F09135
:10020000840041E050E0BA0102C0660F771F2A95D2
:10021000E2F79B01408150E042235323452BD1F369
:1002200013C001968430910509F0BFCFE09185009D
:10023000F09186008081A82BA0836F5F7F4F643090
:10024000710509F09ACF80E0DF91CF91089598B3BE
:1002500021E030E002C0220F331F8A95E2F720959B
:10026000922398BB089548B321E030E0B90102C061
:10027000660F771F8A95E2F7CB01842B88BB089520
:10028000FC012081222361F0319621E030E0819150
:10029000882349F02F5F3F4F24303105C1F706C056
:1002A00080E090E0089580E090E0089581E090E0A3
:1002B0000895FC0120E030E08191A0916000B091B0
:1002C0006100A20FB31F8C932F5F3F4F2430310585
:1002D00099F70895A0916000B09161009C91809180
:1002E0008D0098130DC01196EEE8F0E081E990E0E2
:1002F0003D912191321307C0E817F907C9F706C0ED
:1003000080E090E0089580E090E0089581E090E042
:10031000089510928D0010928E0010928F0010920E
:1003200090001092820010928C00089582E390E079
:10033000E9E8F0E0C09A20813181283C310539F4A8
:10034000AFE8B1E01197F1F700C0000006C0AFECD4
:10035000B7E01197F1F700C00000C098208131810B
:10036000283C310539F4AFEABAE91197F1F700C03A
:10037000000006C0AFE6B4E91197F1F700C0000035
:1003800001970097B9F6089588EE93E090938A005C
:1003900080938900CBDF81E080938B0082E057DF80
:1003A00081E061DF089588EC90E090938A0080936B
:1003B0008900BCDF10928B0081E049DF82E053DFCF
:1003C000089587E087BB88EF88BB40E350E062E395
:1003D00070E081E390E0B5DE7CDE80E866DE82E7F7
:1003E00090E069DE88EE93E090938A008093890024
:1003F00081E080938B0010928C00D5DF8ADF11E0C2
:10040000CBE8D0E0B4DE8823E9F3813439F018F486
:100410008A3239F020C08534A8F31DC010938C00B7
:10042000F1CF80918C0081110AC054DF892B89F0B3
:100430008881811102C0A8DF0CC0B5DF0AC08130FD
:1004400041F48DE890E01CDF892B19F08DE890E0F5
:1004500030DF5FDFD7CFE0918200E43098F691E0A3
:100460009E0F90938200F0E0E357FF4F8083CACF46
:04047000F894FFCF2E
:100474007C003132334134353642373839432A30FF
:1004840023444B7574617373212121003132333459
:02049400000066
:00000001FF
